{
  "abi": [
    {
      "type": "constructor",
      "inputs": [
        {
          "name": "title",
          "type": "string",
          "internalType": "string"
        },
        {
          "name": "description",
          "type": "string",
          "internalType": "string"
        },
        {
          "name": "entryStartTime",
          "type": "uint256",
          "internalType": "uint256"
        },
        {
          "name": "entryEndTime",
          "type": "uint256",
          "internalType": "uint256"
        },
        {
          "name": "votingStartTime",
          "type": "uint256",
          "internalType": "uint256"
        },
        {
          "name": "votingEndTime",
          "type": "uint256",
          "internalType": "uint256"
        },
        {
          "name": "organizer",
          "type": "address",
          "internalType": "address"
        },
        {
          "name": "maxEntriesPerParticipant",
          "type": "uint256",
          "internalType": "uint256"
        },
        {
          "name": "maxTotalEntries",
          "type": "uint256",
          "internalType": "uint256"
        }
      ],
      "stateMutability": "nonpayable"
    },
    {
      "type": "function",
      "name": "cancelContest",
      "inputs": [],
      "outputs": [],
      "stateMutability": "nonpayable"
    },
    {
      "type": "function",
      "name": "deleteEntry",
      "inputs": [
        {
          "name": "entryId",
          "type": "uint256",
          "internalType": "uint256"
        }
      ],
      "outputs": [],
      "stateMutability": "nonpayable"
    },
    {
      "type": "function",
      "name": "getAllEntryIds",
      "inputs": [],
      "outputs": [
        {
          "name": "",
          "type": "uint256[]",
          "internalType": "uint256[]"
        }
      ],
      "stateMutability": "view"
    },
    {
      "type": "function",
      "name": "getContestDetails",
      "inputs": [],
      "outputs": [
        {
          "name": "",
          "type": "tuple",
          "internalType": "struct Contest.ContestDetails",
          "components": [
            {
              "name": "title",
              "type": "string",
              "internalType": "string"
            },
            {
              "name": "description",
              "type": "string",
              "internalType": "string"
            },
            {
              "name": "entryStartTime",
              "type": "uint256",
              "internalType": "uint256"
            },
            {
              "name": "entryEndTime",
              "type": "uint256",
              "internalType": "uint256"
            },
            {
              "name": "votingStartTime",
              "type": "uint256",
              "internalType": "uint256"
            },
            {
              "name": "votingEndTime",
              "type": "uint256",
              "internalType": "uint256"
            },
            {
              "name": "organizer",
              "type": "address",
              "internalType": "address"
            },
            {
              "name": "maxTotalEntries",
              "type": "uint256",
              "internalType": "uint256"
            },
            {
              "name": "maxEntriesPerParticipant",
              "type": "uint256",
              "internalType": "uint256"
            }
          ]
        }
      ],
      "stateMutability": "view"
    },
    {
      "type": "function",
      "name": "getContestStatus",
      "inputs": [],
      "outputs": [
        {
          "name": "",
          "type": "uint8",
          "internalType": "enum Contest.ContestStatus"
        }
      ],
      "stateMutability": "view"
    },
    {
      "type": "function",
      "name": "getDeletedEntryIDs",
      "inputs": [],
      "outputs": [
        {
          "name": "",
          "type": "uint256[]",
          "internalType": "uint256[]"
        }
      ],
      "stateMutability": "view"
    },
    {
      "type": "function",
      "name": "getEntry",
      "inputs": [
        {
          "name": "entryId",
          "type": "uint256",
          "internalType": "uint256"
        }
      ],
      "outputs": [
        {
          "name": "entry",
          "type": "tuple",
          "internalType": "struct Contest.ParticipantEntry",
          "components": [
            {
              "name": "participant",
              "type": "address",
              "internalType": "address"
            },
            {
              "name": "content",
              "type": "string",
              "internalType": "string"
            },
            {
              "name": "exists",
              "type": "bool",
              "internalType": "bool"
            },
            {
              "name": "numberOfVotes",
              "type": "uint256",
              "internalType": "uint256"
            }
          ]
        }
      ],
      "stateMutability": "view"
    },
    {
      "type": "function",
      "name": "owner",
      "inputs": [],
      "outputs": [
        {
          "name": "",
          "type": "address",
          "internalType": "address"
        }
      ],
      "stateMutability": "view"
    },
    {
      "type": "function",
      "name": "renounceOwnership",
      "inputs": [],
      "outputs": [],
      "stateMutability": "nonpayable"
    },
    {
      "type": "function",
      "name": "s_allEntryIds",
      "inputs": [
        {
          "name": "",
          "type": "uint256",
          "internalType": "uint256"
        }
      ],
      "outputs": [
        {
          "name": "",
          "type": "uint256",
          "internalType": "uint256"
        }
      ],
      "stateMutability": "view"
    },
    {
      "type": "function",
      "name": "s_deletedEntryIds",
      "inputs": [
        {
          "name": "",
          "type": "uint256",
          "internalType": "uint256"
        }
      ],
      "outputs": [
        {
          "name": "",
          "type": "uint256",
          "internalType": "uint256"
        }
      ],
      "stateMutability": "view"
    },
    {
      "type": "function",
      "name": "s_description",
      "inputs": [],
      "outputs": [
        {
          "name": "",
          "type": "string",
          "internalType": "string"
        }
      ],
      "stateMutability": "view"
    },
    {
      "type": "function",
      "name": "s_entryEndTime",
      "inputs": [],
      "outputs": [
        {
          "name": "",
          "type": "uint256",
          "internalType": "uint256"
        }
      ],
      "stateMutability": "view"
    },
    {
      "type": "function",
      "name": "s_entryStartTime",
      "inputs": [],
      "outputs": [
        {
          "name": "",
          "type": "uint256",
          "internalType": "uint256"
        }
      ],
      "stateMutability": "view"
    },
    {
      "type": "function",
      "name": "s_isCanceled",
      "inputs": [],
      "outputs": [
        {
          "name": "",
          "type": "bool",
          "internalType": "bool"
        }
      ],
      "stateMutability": "view"
    },
    {
      "type": "function",
      "name": "s_maxEntriesPerParticipant",
      "inputs": [],
      "outputs": [
        {
          "name": "",
          "type": "uint256",
          "internalType": "uint256"
        }
      ],
      "stateMutability": "view"
    },
    {
      "type": "function",
      "name": "s_maxTotalEntries",
      "inputs": [],
      "outputs": [
        {
          "name": "",
          "type": "uint256",
          "internalType": "uint256"
        }
      ],
      "stateMutability": "view"
    },
    {
      "type": "function",
      "name": "s_organizer",
      "inputs": [],
      "outputs": [
        {
          "name": "",
          "type": "address",
          "internalType": "address"
        }
      ],
      "stateMutability": "view"
    },
    {
      "type": "function",
      "name": "s_participantEntryCount",
      "inputs": [
        {
          "name": "",
          "type": "address",
          "internalType": "address"
        }
      ],
      "outputs": [
        {
          "name": "",
          "type": "uint256",
          "internalType": "uint256"
        }
      ],
      "stateMutability": "view"
    },
    {
      "type": "function",
      "name": "s_title",
      "inputs": [],
      "outputs": [
        {
          "name": "",
          "type": "string",
          "internalType": "string"
        }
      ],
      "stateMutability": "view"
    },
    {
      "type": "function",
      "name": "s_totalVotes",
      "inputs": [],
      "outputs": [
        {
          "name": "",
          "type": "uint256",
          "internalType": "uint256"
        }
      ],
      "stateMutability": "view"
    },
    {
      "type": "function",
      "name": "s_votingEndTime",
      "inputs": [],
      "outputs": [
        {
          "name": "",
          "type": "uint256",
          "internalType": "uint256"
        }
      ],
      "stateMutability": "view"
    },
    {
      "type": "function",
      "name": "s_votingStartTime",
      "inputs": [],
      "outputs": [
        {
          "name": "",
          "type": "uint256",
          "internalType": "uint256"
        }
      ],
      "stateMutability": "view"
    },
    {
      "type": "function",
      "name": "submitEntry",
      "inputs": [
        {
          "name": "content",
          "type": "string",
          "internalType": "string"
        }
      ],
      "outputs": [
        {
          "name": "",
          "type": "uint256",
          "internalType": "uint256"
        }
      ],
      "stateMutability": "nonpayable"
    },
    {
      "type": "function",
      "name": "transferOwnership",
      "inputs": [
        {
          "name": "newOwner",
          "type": "address",
          "internalType": "address"
        }
      ],
      "outputs": [],
      "stateMutability": "nonpayable"
    },
    {
      "type": "event",
      "name": "Contest__ContestCanceled",
      "inputs": [],
      "anonymous": false
    },
    {
      "type": "event",
      "name": "Contest__EntrySubmitted",
      "inputs": [
        {
          "name": "entryId",
          "type": "uint256",
          "indexed": false,
          "internalType": "uint256"
        },
        {
          "name": "participant",
          "type": "address",
          "indexed": false,
          "internalType": "address"
        },
        {
          "name": "entry",
          "type": "string",
          "indexed": false,
          "internalType": "string"
        }
      ],
      "anonymous": false
    },
    {
      "type": "event",
      "name": "EntryDeleted",
      "inputs": [
        {
          "name": "entryId",
          "type": "uint256",
          "indexed": false,
          "internalType": "uint256"
        }
      ],
      "anonymous": false
    },
    {
      "type": "event",
      "name": "OwnershipTransferred",
      "inputs": [
        {
          "name": "previousOwner",
          "type": "address",
          "indexed": true,
          "internalType": "address"
        },
        {
          "name": "newOwner",
          "type": "address",
          "indexed": true,
          "internalType": "address"
        }
      ],
      "anonymous": false
    },
    {
      "type": "event",
      "name": "VoteCast",
      "inputs": [
        {
          "name": "voter",
          "type": "address",
          "indexed": false,
          "internalType": "address"
        },
        {
          "name": "entryId",
          "type": "uint256",
          "indexed": false,
          "internalType": "uint256"
        }
      ],
      "anonymous": false
    },
    {
      "type": "error",
      "name": "Contest__AlreadyCanceled",
      "inputs": []
    },
    {
      "type": "error",
      "name": "Contest__AlreadyVotedForEntry",
      "inputs": []
    },
    {
      "type": "error",
      "name": "Contest__CannotDeleteEntryAfterContestEndedOrCanceled",
      "inputs": []
    },
    {
      "type": "error",
      "name": "Contest__EntryAlreadyExists",
      "inputs": []
    },
    {
      "type": "error",
      "name": "Contest__ExceededEntryLimit",
      "inputs": [
        {
          "name": "numAllowedEntrySubmissions",
          "type": "uint256",
          "internalType": "uint256"
        }
      ]
    },
    {
      "type": "error",
      "name": "Contest__ExceededTotalMaxEntryLimit",
      "inputs": [
        {
          "name": "maxTotalEntries",
          "type": "uint256",
          "internalType": "uint256"
        }
      ]
    },
    {
      "type": "error",
      "name": "Contest__InvalidOrDeletedEntry",
      "inputs": [
        {
          "name": "entryId",
          "type": "uint256",
          "internalType": "uint256"
        }
      ]
    },
    {
      "type": "error",
      "name": "Contest__NotInVotingPhase",
      "inputs": []
    },
    {
      "type": "error",
      "name": "Contest__NotOpenForParticipants",
      "inputs": []
    },
    {
      "type": "error",
      "name": "Contest__NotOrganizer",
      "inputs": []
    },
    {
      "type": "error",
      "name": "OwnableInvalidOwner",
      "inputs": [
        {
          "name": "owner",
          "type": "address",
          "internalType": "address"
        }
      ]
    },
    {
      "type": "error",
      "name": "OwnableUnauthorizedAccount",
      "inputs": [
        {
          "name": "account",
          "type": "address",
          "internalType": "address"
        }
      ]
    }
  ],
  "bytecode": {
    "object": "0x608060405234801561001057600080fd5b5060405161159238038061159283398101604081905261002f916101d0565b826001600160a01b03811661005e57604051631e4fbdf760e01b81526000600482015260240160405180910390fd5b610067816100c7565b5060016100748a82610336565b5060026100818982610336565b50600396909655600494909455600592909255600655600780546001600160a01b0319166001600160a01b03909216919091179055600891909155600b55506103f49050565b600080546001600160a01b038381166001600160a01b0319831681178455604051919092169283917f8be0079c531659141344cd1fd0a4f28419497f9722a3daafe3b4186f6b6457e09190a35050565b634e487b7160e01b600052604160045260246000fd5b600082601f83011261013e57600080fd5b81516001600160401b0381111561015757610157610117565b604051601f8201601f19908116603f011681016001600160401b038111828210171561018557610185610117565b60405281815283820160200185101561019d57600080fd5b60005b828110156101bc576020818601810151838301820152016101a0565b506000918101602001919091529392505050565b60008060008060008060008060006101208a8c0312156101ef57600080fd5b89516001600160401b0381111561020557600080fd5b6102118c828d0161012d565b60208c0151909a5090506001600160401b0381111561022f57600080fd5b61023b8c828d0161012d565b985050600060408b0151905080975050600060608b0151905080965050600060808b0151905080955050600060a08b015190508094505060c08a015160018060a01b038116811461028b57600080fd5b60e08b0151610100909b0151999c989b50969995989497939695949392505050565b600181811c908216806102c157607f821691505b6020821081036102e157634e487b7160e01b600052602260045260246000fd5b50919050565b601f82111561033157806000526020600020601f840160051c8101602085101561030e5750805b601f840160051c820191505b8181101561032e576000815560010161031a565b50505b505050565b81516001600160401b0381111561034f5761034f610117565b6103638161035d84546102ad565b846102e7565b6020601f821160018114610397576000831561037f5750848201515b600019600385901b1c1916600184901b17845561032e565b600084815260208120601f198516915b828110156103c757878501518255602094850194600190920191016103a7565b50848210156103e55786840151600019600387901b60f8161c191681555b50505050600190811b01905550565b61118f806104036000396000f3fe608060405234801561001057600080fd5b50600436106101735760003560e01c8063715018a6116100de57806399a8502d11610097578063ba9b975811610071578063ba9b9758146102ef578063bae78d7b146102f8578063e02c300914610318578063f2fde38b1461032157600080fd5b806399a8502d146102cb5780639c242094146102d3578063aefaca7f146102e657600080fd5b8063715018a61461025d5780637bd37dfc146102655780637f80667e1461026d5780638da5cb5b146102765780638f97094c1461029b578063922ce146146102ae57600080fd5b80632b00cd64116101305780632b00cd64146101fb5780634ef897191461020e57806354ab50b11461022357806356c106b8146102365780636989641c1461023f5780636be7455d1461025457600080fd5b8063057c106c146101785780630eeb67a1146101ab57806311f7516c146101b45780631b9efecd146101c95780631d19a7cb146101de5780631db0e667146101f3575b600080fd5b610198610186366004610ca4565b600c6020526000908152604090205481565b6040519081526020015b60405180910390f35b610198600b5481565b6101c76101c2366004610cd4565b610334565b005b6101d1610420565b6040516101a29190610ced565b6101e6610478565b6040516101a29190610d76565b6101c7610641565b610198610209366004610e18565b61067c565b610216610691565b6040516101a29190610e8c565b610198610231366004610cd4565b61071f565b61019860055481565b610247610740565b6040516101a29190610eb5565b61019860065481565b6101c76107c5565b6101d16107d9565b61019860035481565b6000546001600160a01b03165b6040516001600160a01b0390911681526020016101a2565b6101986102a9366004610cd4565b61082f565b600f546102bb9060ff1681565b60405190151581526020016101a2565b61021661083f565b600754610283906001600160a01b031681565b61019860045481565b61019860085481565b61030b610306366004610cd4565b61084c565b6040516101a29190610edd565b61019860105481565b6101c761032f366004610ca4565b610960565b61033c6109a3565b6000610346610740565b9050600481600481111561035c5761035c610e9f565b14806103795750600381600481111561037757610377610e9f565b145b1561039757604051636edabdcf60e01b815260040160405180910390fd5b6000828152600d6020526040808220600201805460ff19169055600a805460018101825592527fc65a7bb8d6351c1cf70c95a316cc6a92839c986682d98bc35f958f4883f9d2a8909101839055517f9ad2ca3ec51dc768a93a3a6f7b5778dd0e5f4d4ba47a19df55a0a9a325bcdecb906104149084815260200190565b60405180910390a15050565b6060600980548060200260200160405190810160405280929190818152602001828054801561046e57602002820191906000526020600020905b81548152602001906001019080831161045a575b5050505050905090565b6104d060405180610120016040528060608152602001606081526020016000815260200160008152602001600081526020016000815260200160006001600160a01b0316815260200160008152602001600081525090565b604051806101200160405280600180546104e990610f2d565b80601f016020809104026020016040519081016040528092919081815260200182805461051590610f2d565b80156105625780601f1061053757610100808354040283529160200191610562565b820191906000526020600020905b81548152906001019060200180831161054557829003601f168201915b505050505081526020016002805461057990610f2d565b80601f01602080910402602001604051908101604052809291908181526020018280546105a590610f2d565b80156105f25780601f106105c7576101008083540402835291602001916105f2565b820191906000526020600020905b8154815290600101906020018083116105d557829003601f168201915b505050918352505060035460208201526004546040820152600554606082015260065460808201526007546001600160a01b031660a082015260085460c0820152600b5460e090910152919050565b6106496109a3565b600f5460ff161561066d576040516355840de560e01b815260040160405180910390fd5b600f805460ff19166001179055565b600061068883836109d0565b90505b92915050565b6002805461069e90610f2d565b80601f01602080910402602001604051908101604052809291908181526020018280546106ca90610f2d565b80156107175780601f106106ec57610100808354040283529160200191610717565b820191906000526020600020905b8154815290600101906020018083116106fa57829003601f168201915b505050505081565b600a818154811061072f57600080fd5b600091825260209091200154905081565b600f5460009060ff16156107545750600390565b6003544210156107645750600090565b600354421015801561077857506004544211155b156107835750600190565b6004544211801561079657506005544210155b80156107a457506006544211155b156107af5750600290565b6006544211156107bf5750600490565b50600090565b6107cd6109a3565b6107d76000610c1d565b565b6060600a80548060200260200160405190810160405280929190818152602001828054801561046e576020028201919060005260206000209081548152602001906001019080831161045a575050505050905090565b6009818154811061072f57600080fd5b6001805461069e90610f2d565b610882604051806080016040528060006001600160a01b0316815260200160608152602001600015158152602001600081525090565b6000828152600d602090815260409182902082516080810190935280546001600160a01b0316835260018101805491928401916108be90610f2d565b80601f01602080910402602001604051908101604052809291908181526020018280546108ea90610f2d565b80156109375780601f1061090c57610100808354040283529160200191610937565b820191906000526020600020905b81548152906001019060200180831161091a57829003601f168201915b5050509183525050600282015460ff161515602082015260039091015460409091015292915050565b6109686109a3565b6001600160a01b03811661099757604051631e4fbdf760e01b8152600060048201526024015b60405180910390fd5b6109a081610c1d565b50565b6000546001600160a01b031633146107d75760405163118cdaa760e01b815233600482015260240161098e565b6000806109db610740565b905060018160048111156109f1576109f1610e9f565b14610a0f576040516329048ad560e21b815260040160405180910390fd5b600b54336000908152600c602052604090205410610a4657600b5460405163274ef60760e11b815260040161098e91815260200190565b600854600a54600954610a599190610f7d565b10610a7d5760085460405163147cabfd60e11b815260040161098e91815260200190565b6000610a8a858533610c6d565b6000818152600d602052604090206002015490915060ff1615610ac05760405163016a781960e41b815260040160405180910390fd5b6040518060800160405280336001600160a01b0316815260200186868080601f01602080910402602001604051908101604052809392919081815260200183838082843760009201829052509385525050600160208085018290526040948501849052868452600d815293909220845181546001600160a01b0319166001600160a01b039091161781559284015191830191610b5d915082610ff5565b5060408281015160028301805460ff1916911515919091179055606090920151600390910155336000908152600c602052908120805491610b9d836110b4565b9091555050600980546001810182556000919091527f6e1540171b6c0c960b71a7020d9f60077f6af931a8bbf590da0223dacf75c7af018190556040517f30867471f2b0dd27926494361d6960d2bd1e0883a19d02b003cbb881b6a53ac690610c0d9083903390899089906110f6565b60405180910390a1949350505050565b600080546001600160a01b038381166001600160a01b0319831681178455604051919092169283917f8be0079c531659141344cd1fd0a4f28419497f9722a3daafe3b4186f6b6457e09190a35050565b6000818484604051602001610c849392919061112b565b60408051601f198184030181529190528051602090910120949350505050565b600060208284031215610cb657600080fd5b81356001600160a01b0381168114610ccd57600080fd5b9392505050565b600060208284031215610ce657600080fd5b5035919050565b602080825282518282018190526000918401906040840190835b81811015610d25578351835260209384019390920191600101610d07565b509095945050505050565b6000815180845260005b81811015610d5657602081850181015186830182015201610d3a565b506000602082860101526020601f19601f83011685010191505092915050565b60208152600082516101206020840152610d94610140840182610d30565b90506020840151601f19848303016040850152610db18282610d30565b9150506040840151606084015260608401516080840152608084015160a084015260a084015160c084015260c0840151610df660e08501826001600160a01b03169052565b5060e08401516101008401526101008401516101208401528091505092915050565b60008060208385031215610e2b57600080fd5b823567ffffffffffffffff811115610e4257600080fd5b8301601f81018513610e5357600080fd5b803567ffffffffffffffff811115610e6a57600080fd5b856020828401011115610e7c57600080fd5b6020919091019590945092505050565b6020815260006106886020830184610d30565b634e487b7160e01b600052602160045260246000fd5b6020810160058310610ed757634e487b7160e01b600052602160045260246000fd5b91905290565b602080825282516001600160a01b03168282015282015160806040830152600090610f0b60a0840182610d30565b9050604084015115156060840152606084015160808401528091505092915050565b600181811c90821680610f4157607f821691505b602082108103610f6157634e487b7160e01b600052602260045260246000fd5b50919050565b634e487b7160e01b600052601160045260246000fd5b8181038181111561068b5761068b610f67565b634e487b7160e01b600052604160045260246000fd5b601f821115610ff057806000526020600020601f840160051c81016020851015610fcd5750805b601f840160051c820191505b81811015610fed5760008155600101610fd9565b50505b505050565b815167ffffffffffffffff81111561100f5761100f610f90565b6110238161101d8454610f2d565b84610fa6565b6020601f821160018114611057576000831561103f5750848201515b600019600385901b1c1916600184901b178455610fed565b600084815260208120601f198516915b828110156110875787850151825560209485019460019092019101611067565b50848210156110a55786840151600019600387901b60f8161c191681555b50505050600190811b01905550565b6000600182016110c6576110c6610f67565b5060010190565b81835281816020850137506000828201602090810191909152601f909101601f19169091010190565b8481526001600160a01b038416602082015260606040820181905260009061112190830184866110cd565b9695505050505050565b6001600160a01b038416815260406020820181905260009061115090830184866110cd565b9594505050505056fea2646970667358221220a943c7bbc1298ec468bc8e5c8b103616e74e4a799183971a0f60d1405f9450fd64736f6c634300081a0033",
    "linkReferences": {}
  },
  "methodIdentifiers": {
    "cancelContest()": "1db0e667",
    "deleteEntry(uint256)": "11f7516c",
    "getAllEntryIds()": "1b9efecd",
    "getContestDetails()": "1d19a7cb",
    "getContestStatus()": "6989641c",
    "getDeletedEntryIDs()": "7bd37dfc",
    "getEntry(uint256)": "bae78d7b",
    "owner()": "8da5cb5b",
    "renounceOwnership()": "715018a6",
    "s_allEntryIds(uint256)": "8f97094c",
    "s_deletedEntryIds(uint256)": "54ab50b1",
    "s_description()": "4ef89719",
    "s_entryEndTime()": "aefaca7f",
    "s_entryStartTime()": "7f80667e",
    "s_isCanceled()": "922ce146",
    "s_maxEntriesPerParticipant()": "0eeb67a1",
    "s_maxTotalEntries()": "ba9b9758",
    "s_organizer()": "9c242094",
    "s_participantEntryCount(address)": "057c106c",
    "s_title()": "99a8502d",
    "s_totalVotes()": "e02c3009",
    "s_votingEndTime()": "6be7455d",
    "s_votingStartTime()": "56c106b8",
    "submitEntry(string)": "2b00cd64",
    "transferOwnership(address)": "f2fde38b"
  },
  "id": 28
}