{
  "abi": [
    {
      "type": "function",
      "name": "createContest",
      "inputs": [
        {
          "name": "title",
          "type": "string",
          "internalType": "string"
        },
        {
          "name": "description",
          "type": "string",
          "internalType": "string"
        },
        {
          "name": "entryStartTime",
          "type": "uint256",
          "internalType": "uint256"
        },
        {
          "name": "entryEndTime",
          "type": "uint256",
          "internalType": "uint256"
        },
        {
          "name": "votingStartTime",
          "type": "uint256",
          "internalType": "uint256"
        },
        {
          "name": "votingEndTime",
          "type": "uint256",
          "internalType": "uint256"
        },
        {
          "name": "numAllowedEntrySubmissions",
          "type": "uint256",
          "internalType": "uint256"
        },
        {
          "name": "maxTotalEntries",
          "type": "uint256",
          "internalType": "uint256"
        },
        {
          "name": "numberOfWinners",
          "type": "uint256",
          "internalType": "uint256"
        }
      ],
      "outputs": [
        {
          "name": "",
          "type": "address",
          "internalType": "address"
        }
      ],
      "stateMutability": "nonpayable"
    },
    {
      "type": "function",
      "name": "getDeployedContests",
      "inputs": [],
      "outputs": [
        {
          "name": "",
          "type": "address[]",
          "internalType": "address[]"
        }
      ],
      "stateMutability": "view"
    },
    {
      "type": "event",
      "name": "ContestCreated",
      "inputs": [
        {
          "name": "title",
          "type": "string",
          "indexed": false,
          "internalType": "string"
        },
        {
          "name": "description",
          "type": "string",
          "indexed": false,
          "internalType": "string"
        },
        {
          "name": "organizer",
          "type": "address",
          "indexed": false,
          "internalType": "address"
        },
        {
          "name": "entryPeriodStart",
          "type": "uint256",
          "indexed": false,
          "internalType": "uint256"
        },
        {
          "name": "entryPeriodEnd",
          "type": "uint256",
          "indexed": false,
          "internalType": "uint256"
        }
      ],
      "anonymous": false
    },
    {
      "type": "error",
      "name": "ContestFactory__EntryEndTimeMustBeAfterStartTime",
      "inputs": []
    },
    {
      "type": "error",
      "name": "ContestFactory__EntryStartTimeMustBeInTheFuture",
      "inputs": []
    },
    {
      "type": "error",
      "name": "ContestFactory__VotingEndTimeMustBeAfterStartTime",
      "inputs": []
    }
  ],
  "bytecode": {
    "object": "0x60808060405234601557611dd2908161001b8239f35b600080fdfe608080604052600436101561001357600080fd5b60003560e01c9081633e594180146102235750636362fdc51461003557600080fd5b3461021e5761012036600319011261021e5760043567ffffffffffffffff811161021e576100679036906004016102ff565b9060243567ffffffffffffffff811161021e576100889036906004016102ff565b604493919335916064356084359060a4359242861061020d57858211156101fc57828411156101eb5760405197611a4e95868a01968a881067ffffffffffffffff8911176101c9578a996100fd946100ef9261034f8d396101408a526101408a019161032d565b91878303602089015261032d565b9460408501526060840152608083015260a08201523360c082015260c43560e082015260e4356101008201526101206101043591015203906000f080156101df57600054906001600160a01b0316680100000000000000008210156101c95760018201806000558210156101b357602091600080527f290decd9548b62a8d60345a988386fc84ba6bc95484008f6362f93160ef3e56301816bffffffffffffffffffffffff60a01b825416179055604051908152f35b634e487b7160e01b600052603260045260246000fd5b634e487b7160e01b600052604160045260246000fd5b6040513d6000823e3d90fd5b639b93242d60e01b60005260046000fd5b6370b7542d60e11b60005260046000fd5b630c4c1ee560e01b60005260046000fd5b600080fd5b3461021e57600036600319011261021e57600054808252602082018091600080527f290decd9548b62a8d60345a988386fc84ba6bc95484008f6362f93160ef3e5639060005b8181106102e057505050829003601f01601f191682019167ffffffffffffffff8311818410176101c957908291826040526020830190602084525180915260408301919060005b8181106102be575050500390f35b82516001600160a01b03168452859450602093840193909201916001016102b0565b82546001600160a01b0316845260209093019260019283019201610269565b9181601f8401121561021e5782359167ffffffffffffffff831161021e576020838186019501011161021e57565b908060209392818452848401376000828201840152601f01601f191601019056fe60806040523461040c57611a4e8038038061001981610411565b9283398101906101408183031261040c5780516001600160401b03811161040c5782610046918301610436565b602082015190926001600160401b03821161040c57610066918301610436565b9060408101516060820151608083015160a08401519160c08501519360018060a01b03851680950361040c5760e0860151966101206101008801519701519886156103f657600080546001600160a01b031981168917825588916001600160a01b03909116907f8be0079c531659141344cd1fd0a4f28419497f9722a3daafe3b4186f6b6457e09080a38051906001600160401b0382116102f35760015490600182811c921680156103ec575b60208310146102d35781601f84931161037c575b50602090601f831160011461031457600092610309575b50508160011b916000199060031b1c1916176001555b8051906001600160401b0382116102f35760025490600182811c921680156102e9575b60208310146102d35781601f849311610263575b50602090601f83116001146101fb576000926101f0575b50508160011b916000199060031b1c1916176002555b600355600455600555600655600780546001600160a01b031916919091179055600855600b55600c556040516115ac90816104a28239f35b0151905038806101a2565b600260009081528281209350601f198516905b81811061024b5750908460019594939210610232575b505050811b016002556101b8565b015160001960f88460031b161c19169055388080610224565b9293602060018192878601518155019501930161020e565b60026000529091507f405787fa12a823e0f2b7631cc41b3ba8828b3321ca811111fa75cd3aa3bb5ace601f840160051c810191602085106102c9575b90601f859493920160051c01905b8181106102ba575061018b565b600081558493506001016102ad565b909150819061029f565b634e487b7160e01b600052602260045260246000fd5b91607f1691610177565b634e487b7160e01b600052604160045260246000fd5b01519050388061013e565b600160009081528281209350601f198516905b818110610364575090846001959493921061034b575b505050811b01600155610154565b015160001960f88460031b161c1916905538808061033d565b92936020600181928786015181550195019301610327565b60016000529091507fb10e2d527612073b26eecdfd717e6a320cf44b4afac2b0732d9fcbe2b7fa0cf6601f840160051c810191602085106103e2575b90601f859493920160051c01905b8181106103d35750610127565b600081558493506001016103c6565b90915081906103b8565b91607f1691610113565b631e4fbdf760e01b600052600060045260246000fd5b600080fd5b6040519190601f01601f191682016001600160401b038111838210176102f357604052565b81601f8201121561040c578051906001600160401b0382116102f357610465601f8301601f1916602001610411565b928284526020838301011161040c5760005b82811061048c57505060206000918301015290565b8060208092840101518282870101520161047756fe6080604052600436101561001257600080fd5b60003560e01c80630121b93f14610f8e578063057c106c14610f545780630eeb67a114610f3657806311f7516c14610e715780631366e20014610e535780631b9efecd14610df95780631d19a7cb14610ca35780631db0e66714610c62578063221705ea146109f75780632b00cd64146106415780634ef897191461062557806354ab50b1146105d357806356c106b8146105b557806367787a51146105925780636989641c146105505780636be7455d14610532578063715018a6146104d95780637bd37dfc1461047f5780637f80667e146104615780638da5cb5b146104385780638f97094c14610400578063922ce146146103dd57806399a8502d146103ad5780639c24209414610384578063aefaca7f14610366578063ba9b975814610348578063bae78d7b146102e2578063df15c37e1461025c578063e02c30091461023e578063f2fde38b146101b55763f40d6c1c1461017157600080fd5b346101b05760403660031901126101b0576001600160a01b036101926110a9565b166000526011602052602060ff604060002054166040519015158152f35b600080fd5b346101b05760203660031901126101b0576101ce6110a9565b6101d661152c565b6001600160a01b0316801561022857600080546001600160a01b03198116831782556001600160a01b0316907f8be0079c531659141344cd1fd0a4f28419497f9722a3daafe3b4186f6b6457e09080a3005b631e4fbdf760e01b600052600060045260246000fd5b346101b05760003660031901126101b0576020601354604051908152f35b346101b05760003660031901126101b05760ff600d5416156102d157604051600e548082526020820190600e60005260206000209060005b8181106102bb576102b7856102ab818703826111ad565b604051918291826110bf565b0390f35b8254845260209093019260019283019201610294565b63cd28fdcd60e01b60005260046000fd5b346101b05760203660031901126101b0576102fe600435611421565b60405180916020825260018060a01b038151166020830152606061033160208301516080604086015260a08501906110f9565b916040810151151582850152015160808301520390f35b346101b05760003660031901126101b0576020600854604051908152f35b346101b05760003660031901126101b0576020600454604051908152f35b346101b05760003660031901126101b0576007546040516001600160a01b039091168152602090f35b346101b05760003660031901126101b0576102b76103c96111cf565b6040519182916020835260208301906110f9565b346101b05760003660031901126101b057602060ff601254166040519015158152f35b346101b05760203660031901126101b0576004356009548110156101b05761042960209161131f565b90549060031b1c604051908152f35b346101b05760003660031901126101b0576000546040516001600160a01b039091168152602090f35b346101b05760003660031901126101b0576020600354604051908152f35b346101b05760003660031901126101b057604051600a548082526020820190600a60005260206000209060005b8181106104c3576102b7856102ab818703826111ad565b82548452602090930192600192830192016104ac565b346101b05760003660031901126101b0576104f261152c565b600080546001600160a01b0319811682556001600160a01b03167f8be0079c531659141344cd1fd0a4f28419497f9722a3daafe3b4186f6b6457e08280a3005b346101b05760003660031901126101b0576020600654604051908152f35b346101b05760003660031901126101b0576105696113b0565b604051600582101561057c576020918152f35b634e487b7160e01b600052602160045260246000fd5b346101b05760003660031901126101b057602060ff600d54166040519015158152f35b346101b05760003660031901126101b0576020600554604051908152f35b346101b05760203660031901126101b057600435600a548110156101b057600090600a5481101561061157602082600a829452200154604051908152f35b634e487b7160e01b82526032600452602482fd5b346101b05760003660031901126101b0576102b76103c9611288565b346101b05760203660031901126101b05760043567ffffffffffffffff81116101b057366023820112156101b057806004013567ffffffffffffffff81116101b057602482019160248236920101116101b05761069c6113b0565b600581101561057c576001036109e65733600052600f602052604060002054600b54809110156109d257506106d6600954600a5490611368565b600854809110156109be5750604051602081019033825260408082015261071381610705606082018688611555565b03601f1981018352826111ad565b5190209081600052601060205260ff600260406000200154166109ad5760405161073c81611191565b3381526000906040516107596020601f19601f87011601826111ad565b83815283866020830137826020858301015260208201908152604082016001815260608301918483528685526010602052604085209360018060a01b039051166bffffffffffffffffffffffff60a01b85541617845560018401905180519067ffffffffffffffff8211610999576107d1835461113a565b601f8111610954575b50602090601f83116001146108ed57600395949392918891836108e2575b50508160011b9160001990871b1c19161790555b600284019051151560ff8019835416911617905551910155338152600f6020526040812061083a81546113a1565b905560095490600160401b8210156108ce5750927f30867471f2b0dd27926494361d6960d2bd1e0883a19d02b003cbb881b6a53ac6916108a184610888876001602099016009556009611350565b90919082549060031b91821b91600019901b1916179055565b6108c36040519283928684523388850152606060408501526060840191611555565b0390a1604051908152f35b634e487b7160e01b81526041600452602490fd5b015190508b806107f8565b8388528188209190601f198416895b81811061093c57509160019391856003999897969410610924575b505050811b01905561080c565b015160001983891b60f8161c191690558b8080610917565b929360206001819287860151815501950193016108fc565b83885260208820601f840160051c8101916020851061098f575b601f0160051c01905b81811061098457506107da565b888155600101610977565b909150819061096e565b634e487b7160e01b87526041600452602487fd5b63016a781960e41b60005260046000fd5b63147cabfd60e11b60005260045260246000fd5b63274ef60760e11b60005260045260246000fd5b6329048ad560e21b60005260046000fd5b346101b05760003660031901126101b057610a106113b0565b600581101561057c57600403610c515760ff600d5416610c4057600954610a39600a5482611368565b90600c54809210610c3057610a4d81611375565b91610a5b60405193846111ad565b818352601f19610a6a83611375565b01366020850137600091825b818110610bde5750506000905b6000198301838111610b4057821015610b615760005b610aa38385611368565b6000198101908111610b4057811015610b5657610ac0818661138d565b5160005260106020526003604060002001549060018101808211610b4057600192610aeb828961138d565b51600052601060205260036040600020015411610b0a575b5001610a99565b6000610b2e610b19838a61138d565b5192610b25858b61138d565b5192508961138d565b52610b39828861138d565b5286610b03565b634e487b7160e01b600052601160045260246000fd5b509060010190610a83565b91905080821015610bd65750905b60005b828110610b8857600d805460ff19166001179055005b610b92818361138d565b5190600e54600160401b811015610bc0576001926108888285610bba9401600e55600e611350565b01610b72565b634e487b7160e01b600052604160045260246000fd5b905090610b6f565b610be78161131f565b90549060031b1c80600052601060205260ff60026040600020015416610c11575b50600101610a76565b84610c2991610c23600194978961138d565b526113a1565b9390610c08565b629d3eb960e61b60005260046000fd5b632c91e27f60e11b60005260046000fd5b63af3c91e560e01b60005260046000fd5b346101b05760003660031901126101b057610c7b61152c565b60125460ff8116610c925760ff1916600117601255005b6355840de560e01b60005260046000fd5b346101b05760003660031901126101b0576000610120604051610cc581611174565b60608152606060208201528260408201528260608201528260808201528260a08201528260c08201528260e0820152826101008201520152610140602060035460045460055460065460018060a01b036007541660085491600b549360135495610db8604051610d3481611174565b610d3c6111cf565b8152610da5610d49611288565b918c8101928352604081019b8c52606081019485526080810195865260a0810196875260c0810197885260e081019889526101008101998a5261012081019a8b526040519d8d8f9e928f938452519201526101608d01906110f9565b90518b8203601f190160408d01526110f9565b975160608a01525160808901525160a08801525160c0870152516001600160a01b031660e08601525161010085015251610120840152516101408301520390f35b346101b05760003660031901126101b0576040516009548082526020820190600960005260206000209060005b818110610e3d576102b7856102ab818703826111ad565b8254845260209093019260019283019201610e26565b346101b05760003660031901126101b0576020600c54604051908152f35b346101b05760203660031901126101b057600435610e8d61152c565b610e956113b0565b600581101561057c5760048114908115610f2b575b50610f1a57806000526010602052600260406000200160ff198154169055600a54600160401b811015610bc05781610f117f9ad2ca3ec51dc768a93a3a6f7b5778dd0e5f4d4ba47a19df55a0a9a325bcdecb9361088884600160209601600a55600a611350565b604051908152a1005b636edabdcf60e01b60005260046000fd5b600391501482610eaa565b346101b05760003660031901126101b0576020600b54604051908152f35b346101b05760203660031901126101b0576001600160a01b03610f756110a9565b16600052600f6020526020604060002054604051908152f35b346101b05760203660031901126101b057600435610faa6113b0565b600581101561057c5760020361109857610fc381611421565b80516001600160a01b03161590811561108b575b506110775733600052601160205260ff604060002054166110665760407fa36cc2bebb74db33e9f88110a07ef56e1b31b24b4c4f51b54b1664266e29f45b9133600052601160205281600020600160ff198254161790556110396013546113a1565b6013558060005260106020526003826000200161105681546113a1565b90558151903382526020820152a1005b631022d3b360e01b60005260046000fd5b637995743160e01b60005260045260246000fd5b6040915001511582610fd7565b63617150fd60e11b60005260046000fd5b600435906001600160a01b03821682036101b057565b602060408183019282815284518094520192019060005b8181106110e35750505090565b82518452602093840193909201916001016110d6565b919082519283825260005b848110611125575050826000602080949584010152601f8019910116010190565b80602080928401015182828601015201611104565b90600182811c9216801561116a575b602083101461115457565b634e487b7160e01b600052602260045260246000fd5b91607f1691611149565b610140810190811067ffffffffffffffff821117610bc057604052565b6080810190811067ffffffffffffffff821117610bc057604052565b90601f8019910116810190811067ffffffffffffffff821117610bc057604052565b60405190600082600154916111e38361113a565b80835292600181169081156112695750600114611209575b611207925003836111ad565b565b506001600090815290917fb10e2d527612073b26eecdfd717e6a320cf44b4afac2b0732d9fcbe2b7fa0cf65b81831061124d575050906020611207928201016111fb565b6020919350806001915483858901015201910190918492611235565b6020925061120794915060ff191682840152151560051b8201016111fb565b604051906000826002549161129c8361113a565b808352926001811690811561126957506001146112bf57611207925003836111ad565b506002600090815290917f405787fa12a823e0f2b7631cc41b3ba8828b3321ca811111fa75cd3aa3bb5ace5b818310611303575050906020611207928201016111fb565b60209193508060019154838589010152019101909184926112eb565b60095481101561133a57600960005260206000200190600090565b634e487b7160e01b600052603260045260246000fd5b805482101561133a5760005260206000200190600090565b91908203918211610b4057565b67ffffffffffffffff8111610bc05760051b60200190565b805182101561133a5760209160051b010190565b6000198114610b405760010190565b60ff6012541661141c5760035442106114175760045442111561141257600454421180611406575b806113fa575b6113f55760065442116113f057600090565b600490565b600290565b506006544211156113de565b506005544210156113d8565b600190565b600090565b600390565b6000606060405161143181611191565b8281528160208201528260408201520152600052601060205260406000209060405161145c81611191565b82546001600160a01b0316815260405160018401805460009592916114808261113a565b808452916001811690811561150557506001146114c8575b50506114aa81600394959603826111ad565b602084015260ff600282015416151560408401520154606082015290565b90955060005260206000206000905b8682106114ef5750810160200194506114aa81611498565b60018160209254838587010152019101906114d7565b60ff191660208086019190915292151560051b840190920196506114aa9150829050611498565b6000546001600160a01b0316330361154057565b63118cdaa760e01b6000523360045260246000fd5b908060209392818452848401376000828201840152601f01601f191601019056fea26469706673582212202488f9cfa4c9c3aa70fed3118d9e740df173c77de4086af7f0003237b31315f464736f6c634300081a0033a2646970667358221220835bfa17998d3e4584e55476c21e68f86879c0b3fb513b265f57f47b946c1a9464736f6c634300081a0033",
    "linkReferences": {}
  },
  "methodIdentifiers": {
    "createContest(string,string,uint256,uint256,uint256,uint256,uint256,uint256,uint256)": "6362fdc5",
    "getDeployedContests()": "3e594180"
  },
  "id": 29
}